{
  "contractName": "Governance",
  "abi": [
    {
      "inputs": [
        {
          "internalType": "contract ERC20",
          "name": "tokencoin",
          "type": "address"
        }
      ],
      "stateMutability": "nonpayable",
      "type": "constructor"
    },
    {
      "inputs": [],
      "name": "_token",
      "outputs": [
        {
          "internalType": "contract ERC20",
          "name": "",
          "type": "address"
        }
      ],
      "stateMutability": "view",
      "type": "function"
    },
    {
      "inputs": [],
      "name": "_voting",
      "outputs": [
        {
          "internalType": "bool",
          "name": "",
          "type": "bool"
        }
      ],
      "stateMutability": "view",
      "type": "function"
    },
    {
      "inputs": [],
      "name": "tokens",
      "outputs": [
        {
          "internalType": "uint256",
          "name": "",
          "type": "uint256"
        }
      ],
      "stateMutability": "view",
      "type": "function"
    },
    {
      "inputs": [],
      "name": "users",
      "outputs": [
        {
          "internalType": "uint256",
          "name": "",
          "type": "uint256"
        }
      ],
      "stateMutability": "view",
      "type": "function"
    },
    {
      "inputs": [],
      "name": "votacoes",
      "outputs": [
        {
          "internalType": "uint256",
          "name": "",
          "type": "uint256"
        }
      ],
      "stateMutability": "view",
      "type": "function"
    },
    {
      "inputs": [],
      "name": "vote",
      "outputs": [],
      "stateMutability": "nonpayable",
      "type": "function"
    },
    {
      "inputs": [
        {
          "internalType": "address",
          "name": "voter",
          "type": "address"
        }
      ],
      "name": "hasVoted",
      "outputs": [
        {
          "internalType": "bool",
          "name": "",
          "type": "bool"
        }
      ],
      "stateMutability": "view",
      "type": "function"
    },
    {
      "inputs": [],
      "name": "voteStatus",
      "outputs": [
        {
          "internalType": "bool",
          "name": "",
          "type": "bool"
        }
      ],
      "stateMutability": "nonpayable",
      "type": "function"
    }
  ],
  "bytecode": "0x60806040526000600155600060025560006003556001600460006101000a81548160ff02191690831515021790555034801561003a57600080fd5b506040516108dc3803806108dc833981810160405281019061005c91906100b7565b806000806101000a81548173ffffffffffffffffffffffffffffffffffffffff021916908373ffffffffffffffffffffffffffffffffffffffff1602179055505061013b565b6000815190506100b181610124565b92915050565b6000602082840312156100c957600080fd5b60006100d7848285016100a2565b91505092915050565b60006100eb82610104565b9050919050565b60006100fd826100e0565b9050919050565b600073ffffffffffffffffffffffffffffffffffffffff82169050919050565b61012d816100f2565b811461013857600080fd5b50565b6107928061014a6000396000f3fe608060405234801561001057600080fd5b50600436106100885760003560e01c80639d63848a1161005b5780639d63848a14610103578063ecd0c0c314610121578063f20202751461013f578063f975cde31461015d57610088565b806309eef43e1461008d578063632a9a52146100bd5780636bc78cab146100c75780637ae6ee32146100e5575b600080fd5b6100a760048036038101906100a291906104fa565b61017b565b6040516100b491906105a3565b60405180910390f35b6100c56101d1565b005b6100cf610470565b6040516100dc91906105d9565b60405180910390f35b6100ed610476565b6040516100fa91906105a3565b60405180910390f35b61010b61048d565b60405161011891906105d9565b60405180910390f35b610129610493565b60405161013691906105be565b60405180910390f35b6101476104b7565b60405161015491906105d9565b60405180910390f35b6101656104bd565b60405161017291906105a3565b60405180910390f35b6000600560008373ffffffffffffffffffffffffffffffffffffffff1673ffffffffffffffffffffffffffffffffffffffff16815260200190815260200160002060009054906101000a900460ff169050919050565b600033905060008054906101000a900473ffffffffffffffffffffffffffffffffffffffff1673ffffffffffffffffffffffffffffffffffffffff166370a08231826040518263ffffffff1660e01b815260040161022f9190610588565b60206040518083038186803b15801561024757600080fd5b505afa15801561025b573d6000803e3d6000fd5b505050506040513d601f19601f8201168201806040525081019061027f9190610523565b6000111561028c57600080fd5b600560008273ffffffffffffffffffffffffffffffffffffffff1673ffffffffffffffffffffffffffffffffffffffff16815260200190815260200160002060009054906101000a900460ff16156102e357600080fd5b600460009054906101000a900460ff166102fc57600080fd5b6001600560008373ffffffffffffffffffffffffffffffffffffffff1673ffffffffffffffffffffffffffffffffffffffff16815260200190815260200160002060006101000a81548160ff02191690831515021790555060026000815480929190610367906106b6565b919050555060008054906101000a900473ffffffffffffffffffffffffffffffffffffffff1673ffffffffffffffffffffffffffffffffffffffff166370a08231826040518263ffffffff1660e01b81526004016103c59190610588565b60206040518083038186803b1580156103dd57600080fd5b505afa1580156103f1573d6000803e3d6000fd5b505050506040513d601f19601f820116820180604052508101906104159190610523565b60035461042291906105f4565b600381905550600360025411801561043c5750600a600354115b1561046d57600060028190555060006003819055506000600460006101000a81548160ff0219169083151502179055505b50565b60015481565b6000600460009054906101000a900460ff16905090565b60035481565b60008054906101000a900473ffffffffffffffffffffffffffffffffffffffff1681565b60025481565b600460009054906101000a900460ff1681565b6000813590506104df8161072e565b92915050565b6000815190506104f481610745565b92915050565b60006020828403121561050c57600080fd5b600061051a848285016104d0565b91505092915050565b60006020828403121561053557600080fd5b6000610543848285016104e5565b91505092915050565b6105558161064a565b82525050565b6105648161065c565b82525050565b61057381610692565b82525050565b61058281610688565b82525050565b600060208201905061059d600083018461054c565b92915050565b60006020820190506105b8600083018461055b565b92915050565b60006020820190506105d3600083018461056a565b92915050565b60006020820190506105ee6000830184610579565b92915050565b60006105ff82610688565b915061060a83610688565b9250827fffffffffffffffffffffffffffffffffffffffffffffffffffffffffffffffff0382111561063f5761063e6106ff565b5b828201905092915050565b600061065582610668565b9050919050565b60008115159050919050565b600073ffffffffffffffffffffffffffffffffffffffff82169050919050565b6000819050919050565b600061069d826106a4565b9050919050565b60006106af82610668565b9050919050565b60006106c182610688565b91507fffffffffffffffffffffffffffffffffffffffffffffffffffffffffffffffff8214156106f4576106f36106ff565b5b600182019050919050565b7f4e487b7100000000000000000000000000000000000000000000000000000000600052601160045260246000fd5b6107378161064a565b811461074257600080fd5b50565b61074e81610688565b811461075957600080fd5b5056fea2646970667358221220481348731c755dfd989962b86963cec6ac10dde8accc5b7ba8bc2f53031c1c2664736f6c63430008000033",
  "immutableReferences": {},
  "source": "// SPDX-License-Identifier: MIT\r\npragma solidity ^0.8.0;\r\n\r\nimport \"./inspercoin.sol\";\r\n\r\ncontract Governance {\r\n    \r\n    ERC20 public _token;\r\n\r\n    /// contadores necessrios\r\n    uint256 public votacoes= 0;\r\n    uint256 public users = 0;\r\n    uint256 public tokens = 0;\r\n    bool public _voting = true;\r\n\r\n    constructor(ERC20 tokencoin) {\r\n        _token = tokencoin;\r\n    }\r\n\r\n    // Lista de votantes\r\n    mapping (address => bool) voters;\r\n\r\n    function vote() public {\r\n        address voter = msg.sender;\r\n        require(0 <= _token.balanceOf(voter));\r\n        require(!voters[voter]);\r\n        require(_voting);\r\n\r\n        // Mundanas com o votante\r\n        voters[voter] = true;\r\n\r\n        // Mundanas das variveis da votao\r\n        users++;\r\n        tokens = tokens + _token.balanceOf(voter);\r\n\r\n        // Verifica se votao foi finalizada\r\n        if (users > 3 && tokens > 10) {\r\n            users = 0;\r\n            tokens = 0;\r\n            _voting = false;\r\n        }\r\n\r\n    }\r\n\r\n    function hasVoted(address voter) public view returns(bool) {\r\n        return voters[voter];\r\n    }\r\n\r\n    function voteStatus() public returns(bool) {\r\n        return _voting;\r\n    }\r\n}",
  "sourcePath": "C:\\Users\\55119\\OneDrive\\rea de Trabalho\\Insper\\VsCode\\BLOCKCHAIN\\Truffle-React-Template\\src\\contracts\\Governance.sol",
  "compiler": {
    "name": "solc",
    "version": "0.8.0+commit.c7dfd78e.Emscripten.clang"
  },
  "schemaVersion": "3.4.4",
  "updatedAt": "2022-04-18T16:27:07.645Z",
  "devdoc": {
    "kind": "dev",
    "methods": {},
    "version": 1
  },
  "userdoc": {
    "kind": "user",
    "methods": {
      "votacoes()": {
        "notice": "contadores necessrios"
      }
    },
    "version": 1
  }
}