{
  "contractName": "NFTMarket",
  "abi": [
    {
      "inputs": [],
      "stateMutability": "nonpayable",
      "type": "constructor"
    },
    {
      "anonymous": false,
      "inputs": [
        {
          "indexed": true,
          "internalType": "address",
          "name": "owner",
          "type": "address"
        },
        {
          "indexed": true,
          "internalType": "address",
          "name": "approved",
          "type": "address"
        },
        {
          "indexed": true,
          "internalType": "uint256",
          "name": "tokenId",
          "type": "uint256"
        }
      ],
      "name": "Approval",
      "type": "event"
    },
    {
      "anonymous": false,
      "inputs": [
        {
          "indexed": true,
          "internalType": "address",
          "name": "owner",
          "type": "address"
        },
        {
          "indexed": true,
          "internalType": "address",
          "name": "operator",
          "type": "address"
        },
        {
          "indexed": false,
          "internalType": "bool",
          "name": "approved",
          "type": "bool"
        }
      ],
      "name": "ApprovalForAll",
      "type": "event"
    },
    {
      "anonymous": false,
      "inputs": [
        {
          "indexed": true,
          "internalType": "address",
          "name": "_to",
          "type": "address"
        },
        {
          "indexed": true,
          "internalType": "uint256",
          "name": "_tokenId",
          "type": "uint256"
        },
        {
          "indexed": false,
          "internalType": "string",
          "name": "_metadata",
          "type": "string"
        }
      ],
      "name": "NFTCreated",
      "type": "event"
    },
    {
      "anonymous": false,
      "inputs": [
        {
          "indexed": true,
          "internalType": "address",
          "name": "from",
          "type": "address"
        },
        {
          "indexed": true,
          "internalType": "address",
          "name": "to",
          "type": "address"
        },
        {
          "indexed": true,
          "internalType": "uint256",
          "name": "tokenId",
          "type": "uint256"
        }
      ],
      "name": "Transfer",
      "type": "event"
    },
    {
      "inputs": [
        {
          "internalType": "address",
          "name": "to",
          "type": "address"
        },
        {
          "internalType": "uint256",
          "name": "tokenId",
          "type": "uint256"
        }
      ],
      "name": "approve",
      "outputs": [],
      "stateMutability": "nonpayable",
      "type": "function"
    },
    {
      "inputs": [
        {
          "internalType": "address",
          "name": "owner",
          "type": "address"
        }
      ],
      "name": "balanceOf",
      "outputs": [
        {
          "internalType": "uint256",
          "name": "",
          "type": "uint256"
        }
      ],
      "stateMutability": "view",
      "type": "function",
      "constant": true
    },
    {
      "inputs": [
        {
          "internalType": "uint256",
          "name": "tokenId",
          "type": "uint256"
        }
      ],
      "name": "getApproved",
      "outputs": [
        {
          "internalType": "address",
          "name": "",
          "type": "address"
        }
      ],
      "stateMutability": "view",
      "type": "function",
      "constant": true
    },
    {
      "inputs": [
        {
          "internalType": "address",
          "name": "owner",
          "type": "address"
        },
        {
          "internalType": "address",
          "name": "operator",
          "type": "address"
        }
      ],
      "name": "isApprovedForAll",
      "outputs": [
        {
          "internalType": "bool",
          "name": "",
          "type": "bool"
        }
      ],
      "stateMutability": "view",
      "type": "function",
      "constant": true
    },
    {
      "inputs": [],
      "name": "name",
      "outputs": [
        {
          "internalType": "string",
          "name": "",
          "type": "string"
        }
      ],
      "stateMutability": "view",
      "type": "function",
      "constant": true
    },
    {
      "inputs": [
        {
          "internalType": "uint256",
          "name": "tokenId",
          "type": "uint256"
        }
      ],
      "name": "ownerOf",
      "outputs": [
        {
          "internalType": "address",
          "name": "",
          "type": "address"
        }
      ],
      "stateMutability": "view",
      "type": "function",
      "constant": true
    },
    {
      "inputs": [
        {
          "internalType": "address",
          "name": "from",
          "type": "address"
        },
        {
          "internalType": "address",
          "name": "to",
          "type": "address"
        },
        {
          "internalType": "uint256",
          "name": "tokenId",
          "type": "uint256"
        }
      ],
      "name": "safeTransferFrom",
      "outputs": [],
      "stateMutability": "nonpayable",
      "type": "function"
    },
    {
      "inputs": [
        {
          "internalType": "address",
          "name": "from",
          "type": "address"
        },
        {
          "internalType": "address",
          "name": "to",
          "type": "address"
        },
        {
          "internalType": "uint256",
          "name": "tokenId",
          "type": "uint256"
        },
        {
          "internalType": "bytes",
          "name": "_data",
          "type": "bytes"
        }
      ],
      "name": "safeTransferFrom",
      "outputs": [],
      "stateMutability": "nonpayable",
      "type": "function"
    },
    {
      "inputs": [
        {
          "internalType": "address",
          "name": "operator",
          "type": "address"
        },
        {
          "internalType": "bool",
          "name": "approved",
          "type": "bool"
        }
      ],
      "name": "setApprovalForAll",
      "outputs": [],
      "stateMutability": "nonpayable",
      "type": "function"
    },
    {
      "inputs": [
        {
          "internalType": "bytes4",
          "name": "interfaceId",
          "type": "bytes4"
        }
      ],
      "name": "supportsInterface",
      "outputs": [
        {
          "internalType": "bool",
          "name": "",
          "type": "bool"
        }
      ],
      "stateMutability": "view",
      "type": "function",
      "constant": true
    },
    {
      "inputs": [],
      "name": "symbol",
      "outputs": [
        {
          "internalType": "string",
          "name": "",
          "type": "string"
        }
      ],
      "stateMutability": "view",
      "type": "function",
      "constant": true
    },
    {
      "inputs": [
        {
          "internalType": "uint256",
          "name": "tokenId",
          "type": "uint256"
        }
      ],
      "name": "tokenURI",
      "outputs": [
        {
          "internalType": "string",
          "name": "",
          "type": "string"
        }
      ],
      "stateMutability": "view",
      "type": "function",
      "constant": true
    },
    {
      "inputs": [
        {
          "internalType": "address",
          "name": "from",
          "type": "address"
        },
        {
          "internalType": "address",
          "name": "to",
          "type": "address"
        },
        {
          "internalType": "uint256",
          "name": "tokenId",
          "type": "uint256"
        }
      ],
      "name": "transferFrom",
      "outputs": [],
      "stateMutability": "nonpayable",
      "type": "function"
    },
    {
      "inputs": [],
      "name": "getLastId",
      "outputs": [
        {
          "internalType": "uint256",
          "name": "",
          "type": "uint256"
        }
      ],
      "stateMutability": "view",
      "type": "function",
      "constant": true
    },
    {
      "inputs": [
        {
          "internalType": "string",
          "name": "_metadata",
          "type": "string"
        }
      ],
      "name": "createNFT",
      "outputs": [
        {
          "internalType": "uint256",
          "name": "",
          "type": "uint256"
        }
      ],
      "stateMutability": "nonpayable",
      "type": "function"
    }
  ],
  "bytecode": "0x60806040523480156200001157600080fd5b506040518060400160405280600a81526020017f417274206d696e746572000000000000000000000000000000000000000000008152506040518060400160405280600381526020017f4152540000000000000000000000000000000000000000000000000000000000815250816000908051906020019062000096929190620000b8565b508060019080519060200190620000af929190620000b8565b505050620001cd565b828054620000c69062000168565b90600052602060002090601f016020900481019282620000ea576000855562000136565b82601f106200010557805160ff191683800117855562000136565b8280016001018555821562000136579182015b828111156200013557825182559160200191906001019062000118565b5b50905062000145919062000149565b5090565b5b80821115620001645760008160009055506001016200014a565b5090565b600060028204905060018216806200018157607f821691505b602082108114156200019857620001976200019e565b5b50919050565b7f4e487b7100000000000000000000000000000000000000000000000000000000600052602260045260246000fd5b612c0780620001dd6000396000f3fe608060405234801561001057600080fd5b50600436106100f55760003560e01c806370a0823111610097578063b88d4fde11610066578063b88d4fde14610284578063c87b56dd146102a0578063da2ed03e146102d0578063e985e9c514610300576100f5565b806370a08231146101fc57806395d89b411461022c578063a22cb4651461024a578063a8e5862d14610266576100f5565b8063095ea7b3116100d3578063095ea7b31461017857806323b872dd1461019457806342842e0e146101b05780636352211e146101cc576100f5565b806301ffc9a7146100fa57806306fdde031461012a578063081812fc14610148575b600080fd5b610114600480360381019061010f9190611d43565b610330565b604051610121919061255f565b60405180910390f35b610132610412565b60405161013f919061257a565b60405180910390f35b610162600480360381019061015d9190611dd6565b6104a4565b60405161016f91906124f8565b60405180910390f35b610192600480360381019061018d9190611d07565b610529565b005b6101ae60048036038101906101a99190611c01565b610641565b005b6101ca60048036038101906101c59190611c01565b6106a1565b005b6101e660048036038101906101e19190611dd6565b6106c1565b6040516101f391906124f8565b60405180910390f35b61021660048036038101906102119190611b9c565b610773565b604051610223919061279c565b60405180910390f35b61023461082b565b604051610241919061257a565b60405180910390f35b610264600480360381019061025f9190611ccb565b6108bd565b005b61026e610a3e565b60405161027b919061279c565b60405180910390f35b61029e60048036038101906102999190611c50565b610a4f565b005b6102ba60048036038101906102b59190611dd6565b610ab1565b6040516102c7919061257a565b60405180910390f35b6102ea60048036038101906102e59190611d95565b610c03565b6040516102f7919061279c565b60405180910390f35b61031a60048036038101906103159190611bc5565b610d06565b604051610327919061255f565b60405180910390f35b60007f80ac58cd000000000000000000000000000000000000000000000000000000007bffffffffffffffffffffffffffffffffffffffffffffffffffffffff1916827bffffffffffffffffffffffffffffffffffffffffffffffffffffffff191614806103fb57507f5b5e139f000000000000000000000000000000000000000000000000000000007bffffffffffffffffffffffffffffffffffffffffffffffffffffffff1916827bffffffffffffffffffffffffffffffffffffffffffffffffffffffff1916145b8061040b575061040a82610d9a565b5b9050919050565b606060008054610421906129fc565b80601f016020809104026020016040519081016040528092919081815260200182805461044d906129fc565b801561049a5780601f1061046f5761010080835404028352916020019161049a565b820191906000526020600020905b81548152906001019060200180831161047d57829003601f168201915b5050505050905090565b60006104af82610e04565b6104ee576040517f08c379a00000000000000000000000000000000000000000000000000000000081526004016104e5906126fc565b60405180910390fd5b6004600083815260200190815260200160002060009054906101000a900473ffffffffffffffffffffffffffffffffffffffff169050919050565b6000610534826106c1565b90508073ffffffffffffffffffffffffffffffffffffffff168373ffffffffffffffffffffffffffffffffffffffff1614156105a5576040517f08c379a000000000000000000000000000000000000000000000000000000000815260040161059c9061275c565b60405180910390fd5b8073ffffffffffffffffffffffffffffffffffffffff166105c4610e70565b73ffffffffffffffffffffffffffffffffffffffff1614806105f357506105f2816105ed610e70565b610d06565b5b610632576040517f08c379a00000000000000000000000000000000000000000000000000000000081526004016106299061263c565b60405180910390fd5b61063c8383610e78565b505050565b61065261064c610e70565b82610f31565b610691576040517f08c379a00000000000000000000000000000000000000000000000000000000081526004016106889061277c565b60405180910390fd5b61069c83838361100f565b505050565b6106bc83838360405180602001604052806000815250610a4f565b505050565b6000806002600084815260200190815260200160002060009054906101000a900473ffffffffffffffffffffffffffffffffffffffff169050600073ffffffffffffffffffffffffffffffffffffffff168173ffffffffffffffffffffffffffffffffffffffff16141561076a576040517f08c379a00000000000000000000000000000000000000000000000000000000081526004016107619061267c565b60405180910390fd5b80915050919050565b60008073ffffffffffffffffffffffffffffffffffffffff168273ffffffffffffffffffffffffffffffffffffffff1614156107e4576040517f08c379a00000000000000000000000000000000000000000000000000000000081526004016107db9061265c565b60405180910390fd5b600360008373ffffffffffffffffffffffffffffffffffffffff1673ffffffffffffffffffffffffffffffffffffffff168152602001908152602001600020549050919050565b60606001805461083a906129fc565b80601f0160208091040260200160405190810160405280929190818152602001828054610866906129fc565b80156108b35780601f10610888576101008083540402835291602001916108b3565b820191906000526020600020905b81548152906001019060200180831161089657829003601f168201915b5050505050905090565b6108c5610e70565b73ffffffffffffffffffffffffffffffffffffffff168273ffffffffffffffffffffffffffffffffffffffff161415610933576040517f08c379a000000000000000000000000000000000000000000000000000000000815260040161092a906125fc565b60405180910390fd5b8060056000610940610e70565b73ffffffffffffffffffffffffffffffffffffffff1673ffffffffffffffffffffffffffffffffffffffff16815260200190815260200160002060008473ffffffffffffffffffffffffffffffffffffffff1673ffffffffffffffffffffffffffffffffffffffff16815260200190815260200160002060006101000a81548160ff0219169083151502179055508173ffffffffffffffffffffffffffffffffffffffff166109ed610e70565b73ffffffffffffffffffffffffffffffffffffffff167f17307eab39ab6107e8899845ad3d59bd9653f200f220920489ca2b5937696c3183604051610a32919061255f565b60405180910390a35050565b6000610a4a600761126b565b905090565b610a60610a5a610e70565b83610f31565b610a9f576040517f08c379a0000000000000000000000000000000000000000000000000000000008152600401610a969061277c565b60405180910390fd5b610aab84848484611279565b50505050565b6060610abc82610e04565b610afb576040517f08c379a0000000000000000000000000000000000000000000000000000000008152600401610af2906126dc565b60405180910390fd5b6000600660008481526020019081526020016000208054610b1b906129fc565b80601f0160208091040260200160405190810160405280929190818152602001828054610b47906129fc565b8015610b945780601f10610b6957610100808354040283529160200191610b94565b820191906000526020600020905b815481529060010190602001808311610b7757829003601f168201915b505050505090506000610ba56112d5565b9050600081511415610bbb578192505050610bfe565b600082511115610bf0578082604051602001610bd89291906124d4565b60405160208183030381529060405292505050610bfe565b610bf9846112ec565b925050505b919050565b60006001600883604051610c1791906124bd565b908152602001604051809103902060009054906101000a900460ff1660ff161415610c4157600080fd5b6001600883604051610c5391906124bd565b908152602001604051809103902060006101000a81548160ff021916908360ff160217905550610c836007611393565b6000610c8f600761126b565b9050610c9b33826113a9565b610ca581846113c7565b610caf600761126b565b3373ffffffffffffffffffffffffffffffffffffffff167f403f45e064e1472b925888509d0e5164b4642f3064c519d162e3b9261c204adc85604051610cf5919061257a565b60405180910390a380915050919050565b6000600560008473ffffffffffffffffffffffffffffffffffffffff1673ffffffffffffffffffffffffffffffffffffffff16815260200190815260200160002060008373ffffffffffffffffffffffffffffffffffffffff1673ffffffffffffffffffffffffffffffffffffffff16815260200190815260200160002060009054906101000a900460ff16905092915050565b60007f01ffc9a7000000000000000000000000000000000000000000000000000000007bffffffffffffffffffffffffffffffffffffffffffffffffffffffff1916827bffffffffffffffffffffffffffffffffffffffffffffffffffffffff1916149050919050565b60008073ffffffffffffffffffffffffffffffffffffffff166002600084815260200190815260200160002060009054906101000a900473ffffffffffffffffffffffffffffffffffffffff1673ffffffffffffffffffffffffffffffffffffffff1614159050919050565b600033905090565b816004600083815260200190815260200160002060006101000a81548173ffffffffffffffffffffffffffffffffffffffff021916908373ffffffffffffffffffffffffffffffffffffffff160217905550808273ffffffffffffffffffffffffffffffffffffffff16610eeb836106c1565b73ffffffffffffffffffffffffffffffffffffffff167f8c5be1e5ebec7d5bd14f71427d1e84f3dd0314c0f7b2291e5b200ac8c7c3b92560405160405180910390a45050565b6000610f3c82610e04565b610f7b576040517f08c379a0000000000000000000000000000000000000000000000000000000008152600401610f729061261c565b60405180910390fd5b6000610f86836106c1565b90508073ffffffffffffffffffffffffffffffffffffffff168473ffffffffffffffffffffffffffffffffffffffff161480610ff557508373ffffffffffffffffffffffffffffffffffffffff16610fdd846104a4565b73ffffffffffffffffffffffffffffffffffffffff16145b8061100657506110058185610d06565b5b91505092915050565b8273ffffffffffffffffffffffffffffffffffffffff1661102f826106c1565b73ffffffffffffffffffffffffffffffffffffffff1614611085576040517f08c379a000000000000000000000000000000000000000000000000000000000815260040161107c9061271c565b60405180910390fd5b600073ffffffffffffffffffffffffffffffffffffffff168273ffffffffffffffffffffffffffffffffffffffff1614156110f5576040517f08c379a00000000000000000000000000000000000000000000000000000000081526004016110ec906125dc565b60405180910390fd5b61110083838361143b565b61110b600082610e78565b6001600360008573ffffffffffffffffffffffffffffffffffffffff1673ffffffffffffffffffffffffffffffffffffffff168152602001908152602001600020600082825461115b9190612912565b925050819055506001600360008473ffffffffffffffffffffffffffffffffffffffff1673ffffffffffffffffffffffffffffffffffffffff16815260200190815260200160002060008282546111b2919061288b565b92505081905550816002600083815260200190815260200160002060006101000a81548173ffffffffffffffffffffffffffffffffffffffff021916908373ffffffffffffffffffffffffffffffffffffffff160217905550808273ffffffffffffffffffffffffffffffffffffffff168473ffffffffffffffffffffffffffffffffffffffff167fddf252ad1be2c89b69c2b068fc378daa952ba7f163c4a11628f55a4df523b3ef60405160405180910390a4505050565b600081600001549050919050565b61128484848461100f565b61129084848484611440565b6112cf576040517f08c379a00000000000000000000000000000000000000000000000000000000081526004016112c69061259c565b60405180910390fd5b50505050565b606060405180602001604052806000815250905090565b60606112f782610e04565b611336576040517f08c379a000000000000000000000000000000000000000000000000000000000815260040161132d9061273c565b60405180910390fd5b60006113406112d5565b90506000815111611360576040518060200160405280600081525061138b565b8061136a846115d7565b60405160200161137b9291906124d4565b6040516020818303038152906040525b915050919050565b6001816000016000828254019250508190555050565b6113c3828260405180602001604052806000815250611784565b5050565b6113d082610e04565b61140f576040517f08c379a00000000000000000000000000000000000000000000000000000000081526004016114069061269c565b60405180910390fd5b806006600084815260200190815260200160002090805190602001906114369291906119c0565b505050565b505050565b60006114618473ffffffffffffffffffffffffffffffffffffffff166117df565b156115ca578373ffffffffffffffffffffffffffffffffffffffff1663150b7a0261148a610e70565b8786866040518563ffffffff1660e01b81526004016114ac9493929190612513565b602060405180830381600087803b1580156114c657600080fd5b505af19250505080156114f757506040513d601f19601f820116820180604052508101906114f49190611d6c565b60015b61157a573d8060008114611527576040519150601f19603f3d011682016040523d82523d6000602084013e61152c565b606091505b50600081511415611572576040517f08c379a00000000000000000000000000000000000000000000000000000000081526004016115699061259c565b60405180910390fd5b805181602001fd5b63150b7a0260e01b7bffffffffffffffffffffffffffffffffffffffffffffffffffffffff1916817bffffffffffffffffffffffffffffffffffffffffffffffffffffffff1916149150506115cf565b600190505b949350505050565b6060600082141561161f576040518060400160405280600181526020017f3000000000000000000000000000000000000000000000000000000000000000815250905061177f565b600082905060005b6000821461165157808061163a90612a2e565b915050600a8261164a91906128e1565b9150611627565b60008167ffffffffffffffff811115611693577f4e487b7100000000000000000000000000000000000000000000000000000000600052604160045260246000fd5b6040519080825280601f01601f1916602001820160405280156116c55781602001600182028036833780820191505090505b5090505b60008514611778576001826116de9190612912565b9150600a856116ed9190612a77565b60306116f9919061288b565b60f81b818381518110611735577f4e487b7100000000000000000000000000000000000000000000000000000000600052603260045260246000fd5b60200101907effffffffffffffffffffffffffffffffffffffffffffffffffffffffffffff1916908160001a905350600a8561177191906128e1565b94506116c9565b8093505050505b919050565b61178e83836117f2565b61179b6000848484611440565b6117da576040517f08c379a00000000000000000000000000000000000000000000000000000000081526004016117d19061259c565b60405180910390fd5b505050565b600080823b905060008111915050919050565b600073ffffffffffffffffffffffffffffffffffffffff168273ffffffffffffffffffffffffffffffffffffffff161415611862576040517f08c379a0000000000000000000000000000000000000000000000000000000008152600401611859906126bc565b60405180910390fd5b61186b81610e04565b156118ab576040517f08c379a00000000000000000000000000000000000000000000000000000000081526004016118a2906125bc565b60405180910390fd5b6118b76000838361143b565b6001600360008473ffffffffffffffffffffffffffffffffffffffff1673ffffffffffffffffffffffffffffffffffffffff1681526020019081526020016000206000828254611907919061288b565b92505081905550816002600083815260200190815260200160002060006101000a81548173ffffffffffffffffffffffffffffffffffffffff021916908373ffffffffffffffffffffffffffffffffffffffff160217905550808273ffffffffffffffffffffffffffffffffffffffff16600073ffffffffffffffffffffffffffffffffffffffff167fddf252ad1be2c89b69c2b068fc378daa952ba7f163c4a11628f55a4df523b3ef60405160405180910390a45050565b8280546119cc906129fc565b90600052602060002090601f0160209004810192826119ee5760008555611a35565b82601f10611a0757805160ff1916838001178555611a35565b82800160010185558215611a35579182015b82811115611a34578251825591602001919060010190611a19565b5b509050611a429190611a46565b5090565b5b80821115611a5f576000816000905550600101611a47565b5090565b6000611a76611a71846127e8565b6127b7565b905082815260208101848484011115611a8e57600080fd5b611a998482856129ba565b509392505050565b6000611ab4611aaf84612818565b6127b7565b905082815260208101848484011115611acc57600080fd5b611ad78482856129ba565b509392505050565b600081359050611aee81612b75565b92915050565b600081359050611b0381612b8c565b92915050565b600081359050611b1881612ba3565b92915050565b600081519050611b2d81612ba3565b92915050565b600082601f830112611b4457600080fd5b8135611b54848260208601611a63565b91505092915050565b600082601f830112611b6e57600080fd5b8135611b7e848260208601611aa1565b91505092915050565b600081359050611b9681612bba565b92915050565b600060208284031215611bae57600080fd5b6000611bbc84828501611adf565b91505092915050565b60008060408385031215611bd857600080fd5b6000611be685828601611adf565b9250506020611bf785828601611adf565b9150509250929050565b600080600060608486031215611c1657600080fd5b6000611c2486828701611adf565b9350506020611c3586828701611adf565b9250506040611c4686828701611b87565b9150509250925092565b60008060008060808587031215611c6657600080fd5b6000611c7487828801611adf565b9450506020611c8587828801611adf565b9350506040611c9687828801611b87565b925050606085013567ffffffffffffffff811115611cb357600080fd5b611cbf87828801611b33565b91505092959194509250565b60008060408385031215611cde57600080fd5b6000611cec85828601611adf565b9250506020611cfd85828601611af4565b9150509250929050565b60008060408385031215611d1a57600080fd5b6000611d2885828601611adf565b9250506020611d3985828601611b87565b9150509250929050565b600060208284031215611d5557600080fd5b6000611d6384828501611b09565b91505092915050565b600060208284031215611d7e57600080fd5b6000611d8c84828501611b1e565b91505092915050565b600060208284031215611da757600080fd5b600082013567ffffffffffffffff811115611dc157600080fd5b611dcd84828501611b5d565b91505092915050565b600060208284031215611de857600080fd5b6000611df684828501611b87565b91505092915050565b611e0881612946565b82525050565b611e1781612958565b82525050565b6000611e2882612848565b611e32818561285e565b9350611e428185602086016129c9565b611e4b81612b64565b840191505092915050565b6000611e6182612853565b611e6b818561286f565b9350611e7b8185602086016129c9565b611e8481612b64565b840191505092915050565b6000611e9a82612853565b611ea48185612880565b9350611eb48185602086016129c9565b80840191505092915050565b6000611ecd60328361286f565b91507f4552433732313a207472616e7366657220746f206e6f6e20455243373231526560008301527f63656976657220696d706c656d656e74657200000000000000000000000000006020830152604082019050919050565b6000611f33601c8361286f565b91507f4552433732313a20746f6b656e20616c7265616479206d696e746564000000006000830152602082019050919050565b6000611f7360248361286f565b91507f4552433732313a207472616e7366657220746f20746865207a65726f2061646460008301527f72657373000000000000000000000000000000000000000000000000000000006020830152604082019050919050565b6000611fd960198361286f565b91507f4552433732313a20617070726f766520746f2063616c6c6572000000000000006000830152602082019050919050565b6000612019602c8361286f565b91507f4552433732313a206f70657261746f7220717565727920666f72206e6f6e657860008301527f697374656e7420746f6b656e00000000000000000000000000000000000000006020830152604082019050919050565b600061207f60388361286f565b91507f4552433732313a20617070726f76652063616c6c6572206973206e6f74206f7760008301527f6e6572206e6f7220617070726f76656420666f7220616c6c00000000000000006020830152604082019050919050565b60006120e5602a8361286f565b91507f4552433732313a2062616c616e636520717565727920666f7220746865207a6560008301527f726f2061646472657373000000000000000000000000000000000000000000006020830152604082019050919050565b600061214b60298361286f565b91507f4552433732313a206f776e657220717565727920666f72206e6f6e657869737460008301527f656e7420746f6b656e00000000000000000000000000000000000000000000006020830152604082019050919050565b60006121b1602e8361286f565b91507f45524337323155524953746f726167653a2055524920736574206f66206e6f6e60008301527f6578697374656e7420746f6b656e0000000000000000000000000000000000006020830152604082019050919050565b600061221760208361286f565b91507f4552433732313a206d696e7420746f20746865207a65726f20616464726573736000830152602082019050919050565b600061225760318361286f565b91507f45524337323155524953746f726167653a2055524920717565727920666f722060008301527f6e6f6e6578697374656e7420746f6b656e0000000000000000000000000000006020830152604082019050919050565b60006122bd602c8361286f565b91507f4552433732313a20617070726f76656420717565727920666f72206e6f6e657860008301527f697374656e7420746f6b656e00000000000000000000000000000000000000006020830152604082019050919050565b600061232360298361286f565b91507f4552433732313a207472616e73666572206f6620746f6b656e2074686174206960008301527f73206e6f74206f776e00000000000000000000000000000000000000000000006020830152604082019050919050565b6000612389602f8361286f565b91507f4552433732314d657461646174613a2055524920717565727920666f72206e6f60008301527f6e6578697374656e7420746f6b656e00000000000000000000000000000000006020830152604082019050919050565b60006123ef60218361286f565b91507f4552433732313a20617070726f76616c20746f2063757272656e74206f776e6560008301527f72000000000000000000000000000000000000000000000000000000000000006020830152604082019050919050565b600061245560318361286f565b91507f4552433732313a207472616e736665722063616c6c6572206973206e6f74206f60008301527f776e6572206e6f7220617070726f7665640000000000000000000000000000006020830152604082019050919050565b6124b7816129b0565b82525050565b60006124c98284611e8f565b915081905092915050565b60006124e08285611e8f565b91506124ec8284611e8f565b91508190509392505050565b600060208201905061250d6000830184611dff565b92915050565b60006080820190506125286000830187611dff565b6125356020830186611dff565b61254260408301856124ae565b81810360608301526125548184611e1d565b905095945050505050565b60006020820190506125746000830184611e0e565b92915050565b600060208201905081810360008301526125948184611e56565b905092915050565b600060208201905081810360008301526125b581611ec0565b9050919050565b600060208201905081810360008301526125d581611f26565b9050919050565b600060208201905081810360008301526125f581611f66565b9050919050565b6000602082019050818103600083015261261581611fcc565b9050919050565b600060208201905081810360008301526126358161200c565b9050919050565b6000602082019050818103600083015261265581612072565b9050919050565b60006020820190508181036000830152612675816120d8565b9050919050565b600060208201905081810360008301526126958161213e565b9050919050565b600060208201905081810360008301526126b5816121a4565b9050919050565b600060208201905081810360008301526126d58161220a565b9050919050565b600060208201905081810360008301526126f58161224a565b9050919050565b60006020820190508181036000830152612715816122b0565b9050919050565b6000602082019050818103600083015261273581612316565b9050919050565b600060208201905081810360008301526127558161237c565b9050919050565b60006020820190508181036000830152612775816123e2565b9050919050565b6000602082019050818103600083015261279581612448565b9050919050565b60006020820190506127b160008301846124ae565b92915050565b6000604051905081810181811067ffffffffffffffff821117156127de576127dd612b35565b5b8060405250919050565b600067ffffffffffffffff82111561280357612802612b35565b5b601f19601f8301169050602081019050919050565b600067ffffffffffffffff82111561283357612832612b35565b5b601f19601f8301169050602081019050919050565b600081519050919050565b600081519050919050565b600082825260208201905092915050565b600082825260208201905092915050565b600081905092915050565b6000612896826129b0565b91506128a1836129b0565b9250827fffffffffffffffffffffffffffffffffffffffffffffffffffffffffffffffff038211156128d6576128d5612aa8565b5b828201905092915050565b60006128ec826129b0565b91506128f7836129b0565b92508261290757612906612ad7565b5b828204905092915050565b600061291d826129b0565b9150612928836129b0565b92508282101561293b5761293a612aa8565b5b828203905092915050565b600061295182612990565b9050919050565b60008115159050919050565b60007fffffffff0000000000000000000000000000000000000000000000000000000082169050919050565b600073ffffffffffffffffffffffffffffffffffffffff82169050919050565b6000819050919050565b82818337600083830152505050565b60005b838110156129e75780820151818401526020810190506129cc565b838111156129f6576000848401525b50505050565b60006002820490506001821680612a1457607f821691505b60208210811415612a2857612a27612b06565b5b50919050565b6000612a39826129b0565b91507fffffffffffffffffffffffffffffffffffffffffffffffffffffffffffffffff821415612a6c57612a6b612aa8565b5b600182019050919050565b6000612a82826129b0565b9150612a8d836129b0565b925082612a9d57612a9c612ad7565b5b828206905092915050565b7f4e487b7100000000000000000000000000000000000000000000000000000000600052601160045260246000fd5b7f4e487b7100000000000000000000000000000000000000000000000000000000600052601260045260246000fd5b7f4e487b7100000000000000000000000000000000000000000000000000000000600052602260045260246000fd5b7f4e487b7100000000000000000000000000000000000000000000000000000000600052604160045260246000fd5b6000601f19601f8301169050919050565b612b7e81612946565b8114612b8957600080fd5b50565b612b9581612958565b8114612ba057600080fd5b50565b612bac81612964565b8114612bb757600080fd5b50565b612bc3816129b0565b8114612bce57600080fd5b5056fea2646970667358221220769b86ae3cbbf7b8c52fa5d526ec56e4c297cedb507005b821d5e996c2ea50f064736f6c63430008000033",
  "immutableReferences": {},
  "source": "// SPDX-License-Identifier: MIT\npragma solidity ^0.8.0;\n\nimport \"@openzeppelin/contracts/token/ERC721/extensions/ERC721URIStorage.sol\";\nimport \"@openzeppelin/contracts/utils/Counters.sol\";\n\ncontract NFTMarket is ERC721URIStorage {\n    using Counters for Counters.Counter;\n    Counters.Counter private tokenIds;\n    mapping(string => uint8) hashes;\n\n    event NFTCreated(address indexed _to, uint256 indexed _tokenId, string _metadata);\n\n    constructor() ERC721(\"Art minter\", \"ART\") {}\n\n    function getLastId() \n        public view\n        returns (uint256) \n    {\n        return tokenIds.current();    \n    }\n\n    function createNFT(string memory _metadata)\n        public\n        returns (uint256)\n    {\n        //check if cid has already been used\n        require(hashes[_metadata] != 1);\n        //mark cid as used\n        hashes[_metadata] = 1;\n        \n        tokenIds.increment();\n\n        uint256 newItemId = tokenIds.current();\n        _safeMint(msg.sender, newItemId);\n        _setTokenURI(newItemId, _metadata);\n\n        emit NFTCreated(msg.sender, tokenIds.current(), _metadata);\n\n        return newItemId;\n    }\n}",
  "sourcePath": "/Users/paulochade/Desktop/nft/src/contracts/NFTMarket.sol",
  "compiler": {
    "name": "solc",
    "version": "0.8.0+commit.c7dfd78e.Emscripten.clang"
  },
  "schemaVersion": "3.4.3",
  "updatedAt": "2021-12-02T19:40:03.239Z",
  "networkType": "ethereum",
  "devdoc": {
    "kind": "dev",
    "methods": {
      "approve(address,uint256)": {
        "details": "See {IERC721-approve}."
      },
      "balanceOf(address)": {
        "details": "See {IERC721-balanceOf}."
      },
      "getApproved(uint256)": {
        "details": "See {IERC721-getApproved}."
      },
      "isApprovedForAll(address,address)": {
        "details": "See {IERC721-isApprovedForAll}."
      },
      "name()": {
        "details": "See {IERC721Metadata-name}."
      },
      "ownerOf(uint256)": {
        "details": "See {IERC721-ownerOf}."
      },
      "safeTransferFrom(address,address,uint256)": {
        "details": "See {IERC721-safeTransferFrom}."
      },
      "safeTransferFrom(address,address,uint256,bytes)": {
        "details": "See {IERC721-safeTransferFrom}."
      },
      "setApprovalForAll(address,bool)": {
        "details": "See {IERC721-setApprovalForAll}."
      },
      "supportsInterface(bytes4)": {
        "details": "See {IERC165-supportsInterface}."
      },
      "symbol()": {
        "details": "See {IERC721Metadata-symbol}."
      },
      "tokenURI(uint256)": {
        "details": "See {IERC721Metadata-tokenURI}."
      },
      "transferFrom(address,address,uint256)": {
        "details": "See {IERC721-transferFrom}."
      }
    },
    "version": 1
  },
  "userdoc": {
    "kind": "user",
    "methods": {},
    "version": 1
  }
}