{
  "contractName": "TestGov",
  "abi": [
    {
      "anonymous": false,
      "inputs": [
        {
          "indexed": true,
          "internalType": "address",
          "name": "tokenOwner",
          "type": "address"
        },
        {
          "indexed": true,
          "internalType": "address",
          "name": "spender",
          "type": "address"
        },
        {
          "indexed": false,
          "internalType": "uint256",
          "name": "amount",
          "type": "uint256"
        }
      ],
      "name": "Approval",
      "type": "event"
    },
    {
      "anonymous": false,
      "inputs": [
        {
          "indexed": true,
          "internalType": "address",
          "name": "from_Id",
          "type": "address"
        },
        {
          "indexed": true,
          "internalType": "address",
          "name": "to_Id",
          "type": "address"
        },
        {
          "indexed": false,
          "internalType": "uint256",
          "name": "amount",
          "type": "uint256"
        }
      ],
      "name": "Transfer",
      "type": "event"
    },
    {
      "inputs": [
        {
          "internalType": "address",
          "name": "owner",
          "type": "address"
        },
        {
          "internalType": "address",
          "name": "mediador",
          "type": "address"
        }
      ],
      "name": "allowance",
      "outputs": [
        {
          "internalType": "uint256",
          "name": "",
          "type": "uint256"
        }
      ],
      "stateMutability": "view",
      "type": "function"
    },
    {
      "inputs": [
        {
          "internalType": "address",
          "name": "mediador",
          "type": "address"
        },
        {
          "internalType": "uint256",
          "name": "amount",
          "type": "uint256"
        }
      ],
      "name": "approve",
      "outputs": [
        {
          "internalType": "bool",
          "name": "",
          "type": "bool"
        }
      ],
      "stateMutability": "nonpayable",
      "type": "function"
    },
    {
      "inputs": [
        {
          "internalType": "address",
          "name": "tokenOwner",
          "type": "address"
        }
      ],
      "name": "balanceOf",
      "outputs": [
        {
          "internalType": "uint256",
          "name": "",
          "type": "uint256"
        }
      ],
      "stateMutability": "view",
      "type": "function"
    },
    {
      "inputs": [
        {
          "internalType": "uint256",
          "name": "",
          "type": "uint256"
        }
      ],
      "name": "clear",
      "outputs": [
        {
          "internalType": "address",
          "name": "",
          "type": "address"
        }
      ],
      "stateMutability": "view",
      "type": "function"
    },
    {
      "inputs": [],
      "name": "name",
      "outputs": [
        {
          "internalType": "string",
          "name": "",
          "type": "string"
        }
      ],
      "stateMutability": "view",
      "type": "function"
    },
    {
      "inputs": [],
      "name": "symbol",
      "outputs": [
        {
          "internalType": "string",
          "name": "",
          "type": "string"
        }
      ],
      "stateMutability": "view",
      "type": "function"
    },
    {
      "inputs": [],
      "name": "totalSupply",
      "outputs": [
        {
          "internalType": "uint256",
          "name": "",
          "type": "uint256"
        }
      ],
      "stateMutability": "view",
      "type": "function"
    },
    {
      "inputs": [
        {
          "internalType": "address",
          "name": "destinatario",
          "type": "address"
        },
        {
          "internalType": "uint256",
          "name": "valor",
          "type": "uint256"
        }
      ],
      "name": "transfer",
      "outputs": [
        {
          "internalType": "bool",
          "name": "",
          "type": "bool"
        }
      ],
      "stateMutability": "nonpayable",
      "type": "function"
    },
    {
      "inputs": [
        {
          "internalType": "address",
          "name": "owner",
          "type": "address"
        },
        {
          "internalType": "address",
          "name": "buyer",
          "type": "address"
        },
        {
          "internalType": "uint256",
          "name": "amount",
          "type": "uint256"
        }
      ],
      "name": "transferFrom",
      "outputs": [
        {
          "internalType": "bool",
          "name": "",
          "type": "bool"
        }
      ],
      "stateMutability": "nonpayable",
      "type": "function"
    },
    {
      "inputs": [
        {
          "internalType": "uint256",
          "name": "",
          "type": "uint256"
        }
      ],
      "name": "voters",
      "outputs": [
        {
          "internalType": "address",
          "name": "",
          "type": "address"
        }
      ],
      "stateMutability": "view",
      "type": "function"
    },
    {
      "inputs": [
        {
          "internalType": "address",
          "name": "voter",
          "type": "address"
        },
        {
          "internalType": "uint256",
          "name": "amount",
          "type": "uint256"
        }
      ],
      "name": "voting",
      "outputs": [
        {
          "internalType": "bool",
          "name": "",
          "type": "bool"
        }
      ],
      "stateMutability": "nonpayable",
      "type": "function"
    }
  ],
  "bytecode": "0x60806040526000600555600060065560006007553480156200002057600080fd5b506301c9c3806040518060400160405280600a81526020017f696e73706572636f696e000000000000000000000000000000000000000000008152506040518060400160405280600381526020017f49434f0000000000000000000000000000000000000000000000000000000000815250826002819055506002546000803373ffffffffffffffffffffffffffffffffffffffff1673ffffffffffffffffffffffffffffffffffffffff168152602001908152602001600020819055508160039080519060200190620000f692919062000119565b5080600490805190602001906200010f92919062000119565b505050506200022e565b8280546200012790620001c9565b90600052602060002090601f0160209004810192826200014b576000855562000197565b82601f106200016657805160ff191683800117855562000197565b8280016001018555821562000197579182015b828111156200019657825182559160200191906001019062000179565b5b509050620001a69190620001aa565b5090565b5b80821115620001c5576000816000905550600101620001ab565b5090565b60006002820490506001821680620001e257607f821691505b60208210811415620001f957620001f8620001ff565b5b50919050565b7f4e487b7100000000000000000000000000000000000000000000000000000000600052602260045260246000fd5b611294806200023e6000396000f3fe608060405234801561001057600080fd5b50600436106100a95760003560e01c806370a082311161007157806370a082311461017a57806395d89b41146101aa578063a9059cbb146101c8578063c0fe1af8146101f8578063da58c7d914610228578063dd62ed3e14610258576100a9565b806306fdde03146100ae578063095ea7b3146100cc57806318160ddd146100fc57806323b872dd1461011a5780632f558a8f1461014a575b600080fd5b6100b6610288565b6040516100c39190610fe8565b60405180910390f35b6100e660048036038101906100e19190610ee7565b61031a565b6040516100f39190610fcd565b60405180910390f35b61010461040c565b604051610111919061100a565b60405180910390f35b610134600480360381019061012f9190610e98565b610416565b6040516101419190610fcd565b60405180910390f35b610164600480360381019061015f9190610ee7565b61077c565b6040516101719190610fcd565b60405180910390f35b610194600480360381019061018f9190610e33565b6109e7565b6040516101a1919061100a565b60405180910390f35b6101b2610a2f565b6040516101bf9190610fe8565b60405180910390f35b6101e260048036038101906101dd9190610ee7565b610ac1565b6040516101ef9190610fcd565b60405180910390f35b610212600480360381019061020d9190610f23565b610c95565b60405161021f9190610fb2565b60405180910390f35b610242600480360381019061023d9190610f23565b610cd4565b60405161024f9190610fb2565b60405180910390f35b610272600480360381019061026d9190610e5c565b610d13565b60405161027f919061100a565b60405180910390f35b60606003805461029790611146565b80601f01602080910402602001604051908101604052809291908181526020018280546102c390611146565b80156103105780601f106102e557610100808354040283529160200191610310565b820191906000526020600020905b8154815290600101906020018083116102f357829003601f168201915b5050505050905090565b600081600160003373ffffffffffffffffffffffffffffffffffffffff1673ffffffffffffffffffffffffffffffffffffffff16815260200190815260200160002060008573ffffffffffffffffffffffffffffffffffffffff1673ffffffffffffffffffffffffffffffffffffffff168152602001908152602001600020819055508273ffffffffffffffffffffffffffffffffffffffff163373ffffffffffffffffffffffffffffffffffffffff167f8c5be1e5ebec7d5bd14f71427d1e84f3dd0314c0f7b2291e5b200ac8c7c3b925846040516103fa919061100a565b60405180910390a36001905092915050565b6000600254905090565b60008060008573ffffffffffffffffffffffffffffffffffffffff1673ffffffffffffffffffffffffffffffffffffffff1681526020019081526020016000205482111561046357600080fd5b600160008573ffffffffffffffffffffffffffffffffffffffff1673ffffffffffffffffffffffffffffffffffffffff16815260200190815260200160002060003373ffffffffffffffffffffffffffffffffffffffff1673ffffffffffffffffffffffffffffffffffffffff168152602001908152602001600020548211156104ec57600080fd5b81600160008673ffffffffffffffffffffffffffffffffffffffff1673ffffffffffffffffffffffffffffffffffffffff16815260200190815260200160002060003373ffffffffffffffffffffffffffffffffffffffff1673ffffffffffffffffffffffffffffffffffffffff168152602001908152602001600020546105749190611097565b600160008673ffffffffffffffffffffffffffffffffffffffff1673ffffffffffffffffffffffffffffffffffffffff16815260200190815260200160002060003373ffffffffffffffffffffffffffffffffffffffff1673ffffffffffffffffffffffffffffffffffffffff16815260200190815260200160002081905550816000808673ffffffffffffffffffffffffffffffffffffffff1673ffffffffffffffffffffffffffffffffffffffff1681526020019081526020016000205461063e9190611097565b6000808673ffffffffffffffffffffffffffffffffffffffff1673ffffffffffffffffffffffffffffffffffffffff16815260200190815260200160002081905550816000808573ffffffffffffffffffffffffffffffffffffffff1673ffffffffffffffffffffffffffffffffffffffff168152602001908152602001600020546106ca9190611041565b6000808573ffffffffffffffffffffffffffffffffffffffff1673ffffffffffffffffffffffffffffffffffffffff168152602001908152602001600020819055503373ffffffffffffffffffffffffffffffffffffffff168473ffffffffffffffffffffffffffffffffffffffff167fddf252ad1be2c89b69c2b068fc378daa952ba7f163c4a11628f55a4df523b3ef84604051610769919061100a565b60405180910390a3600190509392505050565b60008060008473ffffffffffffffffffffffffffffffffffffffff1673ffffffffffffffffffffffffffffffffffffffff16815260200190815260200160002054600111156107ca57600080fd5b816000808573ffffffffffffffffffffffffffffffffffffffff1673ffffffffffffffffffffffffffffffffffffffff16815260200190815260200160002054111561081557600080fd5b60005b6008805490508110156108da576008818154811061085f577f4e487b7100000000000000000000000000000000000000000000000000000000600052603260045260246000fd5b9060005260206000200160009054906101000a900473ffffffffffffffffffffffffffffffffffffffff1673ffffffffffffffffffffffffffffffffffffffff168473ffffffffffffffffffffffffffffffffffffffff1614156108c75760009150506109e1565b80806108d290611178565b915050610818565b50816000808573ffffffffffffffffffffffffffffffffffffffff1673ffffffffffffffffffffffffffffffffffffffff168152602001908152602001600020546109259190611097565b6000808573ffffffffffffffffffffffffffffffffffffffff1673ffffffffffffffffffffffffffffffffffffffff1681526020019081526020016000208190555060016006546109769190611041565b6006819055508160075461098a9190611041565b600781905550600754600a111580156109a65750600360065411155b156109dc576000600681905550600960089080546109c5929190610d9a565b5060016005546109d59190611041565b6005819055505b600190505b92915050565b60008060008373ffffffffffffffffffffffffffffffffffffffff1673ffffffffffffffffffffffffffffffffffffffff168152602001908152602001600020549050919050565b606060048054610a3e90611146565b80601f0160208091040260200160405190810160405280929190818152602001828054610a6a90611146565b8015610ab75780601f10610a8c57610100808354040283529160200191610ab7565b820191906000526020600020905b815481529060010190602001808311610a9a57829003601f168201915b5050505050905090565b60008060003373ffffffffffffffffffffffffffffffffffffffff1673ffffffffffffffffffffffffffffffffffffffff16815260200190815260200160002054821115610b0e57600080fd5b816000803373ffffffffffffffffffffffffffffffffffffffff1673ffffffffffffffffffffffffffffffffffffffff16815260200190815260200160002054610b589190611097565b6000803373ffffffffffffffffffffffffffffffffffffffff1673ffffffffffffffffffffffffffffffffffffffff16815260200190815260200160002081905550816000808573ffffffffffffffffffffffffffffffffffffffff1673ffffffffffffffffffffffffffffffffffffffff16815260200190815260200160002054610be49190611041565b6000808573ffffffffffffffffffffffffffffffffffffffff1673ffffffffffffffffffffffffffffffffffffffff168152602001908152602001600020819055508273ffffffffffffffffffffffffffffffffffffffff163373ffffffffffffffffffffffffffffffffffffffff167fddf252ad1be2c89b69c2b068fc378daa952ba7f163c4a11628f55a4df523b3ef84604051610c83919061100a565b60405180910390a36001905092915050565b60098181548110610ca557600080fd5b906000526020600020016000915054906101000a900473ffffffffffffffffffffffffffffffffffffffff1681565b60088181548110610ce457600080fd5b906000526020600020016000915054906101000a900473ffffffffffffffffffffffffffffffffffffffff1681565b6000600160008473ffffffffffffffffffffffffffffffffffffffff1673ffffffffffffffffffffffffffffffffffffffff16815260200190815260200160002060008373ffffffffffffffffffffffffffffffffffffffff1673ffffffffffffffffffffffffffffffffffffffff16815260200190815260200160002054905092915050565b828054828255906000526020600020908101928215610ddb5760005260206000209182015b82811115610dda578254825591600101919060010190610dbf565b5b509050610de89190610dec565b5090565b5b80821115610e05576000816000905550600101610ded565b5090565b600081359050610e1881611230565b92915050565b600081359050610e2d81611247565b92915050565b600060208284031215610e4557600080fd5b6000610e5384828501610e09565b91505092915050565b60008060408385031215610e6f57600080fd5b6000610e7d85828601610e09565b9250506020610e8e85828601610e09565b9150509250929050565b600080600060608486031215610ead57600080fd5b6000610ebb86828701610e09565b9350506020610ecc86828701610e09565b9250506040610edd86828701610e1e565b9150509250925092565b60008060408385031215610efa57600080fd5b6000610f0885828601610e09565b9250506020610f1985828601610e1e565b9150509250929050565b600060208284031215610f3557600080fd5b6000610f4384828501610e1e565b91505092915050565b610f55816110cb565b82525050565b610f64816110dd565b82525050565b6000610f7582611025565b610f7f8185611030565b9350610f8f818560208601611113565b610f988161121f565b840191505092915050565b610fac81611109565b82525050565b6000602082019050610fc76000830184610f4c565b92915050565b6000602082019050610fe26000830184610f5b565b92915050565b600060208201905081810360008301526110028184610f6a565b905092915050565b600060208201905061101f6000830184610fa3565b92915050565b600081519050919050565b600082825260208201905092915050565b600061104c82611109565b915061105783611109565b9250827fffffffffffffffffffffffffffffffffffffffffffffffffffffffffffffffff0382111561108c5761108b6111c1565b5b828201905092915050565b60006110a282611109565b91506110ad83611109565b9250828210156110c0576110bf6111c1565b5b828203905092915050565b60006110d6826110e9565b9050919050565b60008115159050919050565b600073ffffffffffffffffffffffffffffffffffffffff82169050919050565b6000819050919050565b60005b83811015611131578082015181840152602081019050611116565b83811115611140576000848401525b50505050565b6000600282049050600182168061115e57607f821691505b60208210811415611172576111716111f0565b5b50919050565b600061118382611109565b91507fffffffffffffffffffffffffffffffffffffffffffffffffffffffffffffffff8214156111b6576111b56111c1565b5b600182019050919050565b7f4e487b7100000000000000000000000000000000000000000000000000000000600052601160045260246000fd5b7f4e487b7100000000000000000000000000000000000000000000000000000000600052602260045260246000fd5b6000601f19601f8301169050919050565b611239816110cb565b811461124457600080fd5b50565b61125081611109565b811461125b57600080fd5b5056fea26469706673582212205bdf8a26c655495eca15ecca318f336182018d27038fb7f3c7073ae85b4ade8f64736f6c63430008000033",
  "immutableReferences": {},
  "source": "// SPDX-License-Identifier: MIT\r\npragma solidity ^0.8.0;\r\n\r\nimport \"./InsperCoin.sol\";\r\n\r\ncontract TestGov is inspercoin(30000000, \"inspercoin\", \"ICO\") {\r\n    // contadores necessrios\r\n    uint private count_votacao = 0;\r\n    uint private users = 0;\r\n    uint private tokens = 0;\r\n\r\n    // Lista de votantes\r\n    address[] public voters;\r\n    address[] public clear;\r\n\r\n    function voting(address voter, uint256 amount) public returns(bool) {\r\n        require(1 <= balances[voter]);\r\n        require(balances[voter] <= amount);\r\n\r\n        for (uint i=0; i < voters.length; i++) {\r\n            if (voter == voters[i]) {\r\n                return false;\r\n            }\r\n        }\r\n        balances[voter] = balances[voter] - amount;\r\n        users = users + 1;\r\n        tokens = tokens + amount;\r\n\r\n        if (10 <= tokens && users <= 3) {\r\n            users = 0;\r\n            voters = clear;\r\n            count_votacao = count_votacao + 1;\r\n        }\r\n\r\n    return true;\r\n    }\r\n}",
  "sourcePath": "C:\\Users\\55119\\OneDrive\\rea de Trabalho\\Insper\\VsCode\\BLOCKCHAIN\\Truffle-React-Template\\src\\contracts\\Governance.sol",
  "compiler": {
    "name": "solc",
    "version": "0.8.0+commit.c7dfd78e.Emscripten.clang"
  },
  "schemaVersion": "3.4.4",
  "updatedAt": "2022-04-14T13:25:57.320Z",
  "devdoc": {
    "kind": "dev",
    "methods": {},
    "version": 1
  },
  "userdoc": {
    "kind": "user",
    "methods": {},
    "version": 1
  }
}