{
  "contractName": "TokenGovernance",
  "abi": [
    {
      "inputs": [
        {
          "internalType": "contract ERC20",
          "name": "tokenCoin",
          "type": "address"
        }
      ],
      "stateMutability": "nonpayable",
      "type": "constructor"
    },
    {
      "inputs": [],
      "name": "tokenCounter",
      "outputs": [
        {
          "internalType": "uint256",
          "name": "",
          "type": "uint256"
        }
      ],
      "stateMutability": "view",
      "type": "function"
    },
    {
      "inputs": [],
      "name": "votersCounter",
      "outputs": [
        {
          "internalType": "uint256",
          "name": "",
          "type": "uint256"
        }
      ],
      "stateMutability": "view",
      "type": "function"
    },
    {
      "inputs": [],
      "name": "vote",
      "outputs": [],
      "stateMutability": "nonpayable",
      "type": "function"
    },
    {
      "inputs": [],
      "name": "endVote",
      "outputs": [
        {
          "internalType": "bool",
          "name": "",
          "type": "bool"
        }
      ],
      "stateMutability": "view",
      "type": "function"
    }
  ],
  "bytecode": "0x608060405234801561001057600080fd5b506040516105b13803806105b18339818101604052810190610032919061008d565b806000806101000a81548173ffffffffffffffffffffffffffffffffffffffff021916908373ffffffffffffffffffffffffffffffffffffffff16021790555050610111565b600081519050610087816100fa565b92915050565b60006020828403121561009f57600080fd5b60006100ad84828501610078565b91505092915050565b60006100c1826100da565b9050919050565b60006100d3826100b6565b9050919050565b600073ffffffffffffffffffffffffffffffffffffffff82169050919050565b610103816100c8565b811461010e57600080fd5b50565b610491806101206000396000f3fe608060405234801561001057600080fd5b506004361061004c5760003560e01c8063632a9a5214610051578063b92239461461005b578063c659b4f414610079578063d082e38114610097575b600080fd5b6100596100b5565b005b61006361023f565b60405161007091906102f8565b60405180910390f35b610081610266565b60405161008e9190610313565b60405180910390f35b61009f61026c565b6040516100ac9190610313565b60405180910390f35b600360003373ffffffffffffffffffffffffffffffffffffffff1673ffffffffffffffffffffffffffffffffffffffff16815260200190815260200160002060009054906101000a900460ff161561010c57600080fd5b6001600360003373ffffffffffffffffffffffffffffffffffffffff1673ffffffffffffffffffffffffffffffffffffffff16815260200190815260200160002060006101000a81548160ff02191690831515021790555060016000815480929190610177906103cc565b919050555060008054906101000a900473ffffffffffffffffffffffffffffffffffffffff1673ffffffffffffffffffffffffffffffffffffffff166370a08231336040518263ffffffff1660e01b81526004016101d591906102dd565b60206040518083038186803b1580156101ed57600080fd5b505afa158015610201573d6000803e3d6000fd5b505050506040513d601f19601f820116820180604052508101906102259190610287565b60026000828254610236919061032e565b92505081905550565b600060026001541161025057600080fd5b60056002541161025f57600080fd5b6001905090565b60015481565b60025481565b60008151905061028181610444565b92915050565b60006020828403121561029957600080fd5b60006102a784828501610272565b91505092915050565b6102b981610384565b82525050565b6102c881610396565b82525050565b6102d7816103c2565b82525050565b60006020820190506102f260008301846102b0565b92915050565b600060208201905061030d60008301846102bf565b92915050565b600060208201905061032860008301846102ce565b92915050565b6000610339826103c2565b9150610344836103c2565b9250827fffffffffffffffffffffffffffffffffffffffffffffffffffffffffffffffff0382111561037957610378610415565b5b828201905092915050565b600061038f826103a2565b9050919050565b60008115159050919050565b600073ffffffffffffffffffffffffffffffffffffffff82169050919050565b6000819050919050565b60006103d7826103c2565b91507fffffffffffffffffffffffffffffffffffffffffffffffffffffffffffffffff82141561040a57610409610415565b5b600182019050919050565b7f4e487b7100000000000000000000000000000000000000000000000000000000600052601160045260246000fd5b61044d816103c2565b811461045857600080fd5b5056fea264697066735822122078720c5ce571759aea543f6ec33242f29c1d622c8870f6b934758d9b1179fcae64736f6c63430008000033",
  "immutableReferences": {},
  "source": "// SPDX-License-Identifier: MIT\npragma solidity ^0.8.0;\nimport \"@openzeppelin/contracts/token/ERC20/ERC20.sol\";\n\ncontract Coin is ERC20 {\n    constructor(\n        string memory name,\n        string memory symbol,\n        address initialAccount,\n        uint256 initialBalance\n    ) payable ERC20(name, symbol) {\n        _mint(initialAccount, initialBalance);\n    }\n}\n\ncontract TokenGovernance {\n\n    ERC20 _token;\n    uint256 public votersCounter;\n    uint256 public tokenCounter;\n    mapping(address => bool) whoVoted;\n\n    constructor(ERC20 tokenCoin) {\n        _token = tokenCoin;\n    }\n\n    function vote() public {\n        require(!whoVoted[msg.sender]);\n        whoVoted[msg.sender] = true;\n        votersCounter++;\n        tokenCounter += _token.balanceOf(msg.sender);\n    }\n\n    function endVote() public view returns(bool) {\n        require(votersCounter > 2);\n        require(tokenCounter > 5);\n        return true;\n    }\n}",
  "sourcePath": "/Users/paulochade/Desktop/handout-truffle/src/contracts/Governance.sol",
  "compiler": {
    "name": "solc",
    "version": "0.8.0+commit.c7dfd78e.Emscripten.clang"
  },
  "schemaVersion": "3.4.3",
  "updatedAt": "2022-03-23T22:07:43.171Z",
  "devdoc": {
    "kind": "dev",
    "methods": {},
    "version": 1
  },
  "userdoc": {
    "kind": "user",
    "methods": {},
    "version": 1
  }
}